:020000040800F2
:1000000058D30224B1020008976300081D5F00085E
:1000100093630008B10A0008F39400080000000090
:10002000000000000000000000000000A1680008BF
:10003000D50E000800000000CD640008A569000886
:10004000CB020008CB020008CB020008CB0200085C
:10005000CB020008CB020008CB020008CB0200084C
:10006000CB020008CB020008CB020008CB0200083C
:10007000CB020008CB020008CB020008CB0200082C
:10008000CB020008CB020008CB020008CB0200081C
:10009000CB020008CB020008CB020008CB0200080C
:1000A000CB020008CB020008CB020008CB020008FC
:1000B000CB020008CB020008416A0008CB0200080E
:1000C000CB020008CB020008CB020008CB020008DC
:1000D000CB02000891780008E1780008CB02000804
:1000E000CB020008CB02000800000000CB02000891
:1000F000CB020008CB020008CB020008CB020008AC
:10010000CB020008CB020008CB020008CB0200089B
:10011000CB020008CB020008856A0008CB02000869
:10012000CB020008CB020008CB020008CB0200087B
:10013000450C0008CB020008CB020008CB020008E7
:1001400000000000000000000000000000000000AF
:10015000CB020008CB020008CB020008CB0200084B
:10016000CB020008CB020008CB020008CB0200083B
:10017000CB020008CB020008CB0200080000000000
:10018000CB020008CB020008CB020008CB0200081B
:10019000CB020008CB020008CB020008CB0200080B
:1001A000CB020008CB020008CB020008CB020008FB
:1001B000CB020008CB020008CB020008CB020008EB
:1001C000CB020008CB020008CB020008CB020008DB
:1001D000CB02000899630008CB020008CB0200089C
:1001E000CB020008CB020008CB020008CB020008BB
:1001F000CB020008CB020008CB020008CB020008AB
:10020000CB020008CB020008CB020008CB0200089A
:10021000CB020008CB020008CB020008CB0200088A
:10022000CB020008CB020008CB020008000000004F
:10023000CB020008CB02000800000000CB0200083F
:10024000CB020008CB020008CB020008CB0200085A
:10025000CB020008CB020008CB020008CB0200084A
:10026000CB020008CB020008CB020008CB0200083A
:10027000CB020008CB020008CB02000800000000FF
:10028000CB02000800000000CB02000800000000C4
:1002900000000000CB020008DFF810D000F064FA84
:1002A000004800476DA10008AFF3008058D3022436
:1002B0000648804706480047FEE7FEE7FEE7FEE700
:1002C000FEE7FEE7FEE7FEE7FEE7FEE7AD690008B2
:1002D000990200082DE9F05F0546002092469B46F2
:1002E00088460646814640241BE02846414647464C
:1002F000224600F070F853465A46C01A914110D376
:1003000011461846224600F057F82D1A67EB0108EF
:100310004F4622460120002100F04EF817EB00095D
:100320004E41201EA4F10104DFDC484631462A4636
:100330004346BDE8F09F40EA01039B0703D009E074
:1003400008C9121F08C0042AFAD203E011F8013BC1
:1003500000F8013B521EF9D27047D2B201E000F81A
:10036000012B491EFBD270470022F6E710B5134659
:100370000A4604461946FFF7F0FF204610BD421C0E
:1003800010F8011B0029FBD1801A704730B50B46CD
:10039000014600202022012409E021FA02F59D42B5
:1003A00005D303FA02F5491B04FA02F52844151E89
:1003B000A2F10102F1DC30BD202A04DB203A00FA70
:1003C00002F1002070479140C2F1200320FA03F3AC
:1003D000194390407047202A04DB203A21FA02F0AA
:1003E0000021704721FA02F3D040C2F1200291406F
:1003F0000843194670472DE9FE4F804681EA030005
:10040000C00F0C46009021F0004123F00045B8EBEE
:100410000200A94105D24046214690461C460B46A3
:10042000024623F00040104347D0270DC7F30A00CF
:10043000C3F30A510290401A019040286BDAC3F3CB
:10044000130040F4801B0098924620B10023D2EBA9
:10045000030A63EB0B0B01985946C0F1400250466A
:10046000FFF7AAFF06460D4650465946019A00F08E
:100470008DF910EB08006141002487EA115284EAEB
:10048000E7731A4340D0009A62B3019A012A4FEAF7
:10049000075215DC001B61EB02014FF0004202EA3B
:1004A0000752CDE90042001C41F5801132462B462F
:1004B00000F08DF903B0BDE8F08F40462146F9E722
:1004C000001B61EB0201001C41F5801300185B4129
:1004D0002018A2F5001747EB030140EAD570B619C2
:1004E0006D4111E06D084FEA360645EAC0754FEAE6
:1004F0000752001B61EB0201001C41F58011490805
:100500004FEA30000019514132462B4603B0BDE896
:10051000F04F00F04DB90098012240000023D0EBCD
:10052000020263EBE073009821464FEAE074B8EBF7
:10053000000061EB0401E9E783F000435BE781F031
:10054000004158E72DE9FE4F81EA030404F000441E
:1005500021F0004100944FF0000B23F0004350EADB
:1005600001045ED052EA03045BD0C3F30A54C1F322
:100570000A552C44A4F2F3340194A0FB0254C1F3B5
:10058000130141F48011C3F3130343F4801301FBFF
:10059000024400FB034E840A970A44EA815447EA66
:1005A0008357A4FB076802958D0A05FB07854FEA70
:1005B000932C04FB0C542705029D4FEA065847EA8A
:1005C0001637B5EB08056EEB070C870E920E47EA5F
:1005D000811742EA8312A7FB0201B6EB0B0164EB21
:1005E00000042B0D43EA0C335E1844EB1C50DA4632
:1005F0005146E7FB0201C5F313044FEA0B3343EA0C
:1006000014534FEA0432019C43EA0603A4F10C049C
:100610000294009CCDE900B400F0D9F803B0BDE825
:10062000F08F00200146F9E72DE9F04D81EA03043F
:1006300004F0004B21F0004514464FF0000A23F06F
:10064000004150EA050220D054EA01021DD0C5F352
:100650000A570246C5F31303C1F31300C1F30A5648
:1006600040F4801543F48013A7EB0608101BD64610
:1006700008F2FD3873EB050002D308F1010801E030
:1006800092185B41B8F1000F03DA00200146BDE883
:10069000F08D00204FF48011064684460EE0171BB3
:1006A00073EB050705D3121B63EB050306434CEA06
:1006B000010C49084FEA300092185B4150EA0107EB
:1006C000EDD152EA030012D082EA040083EA050168
:1006D000084305D0101BAB4106D20122002306E0DF
:1006E00000224FF0004302E06FF0010253101AEBBA
:1006F00006004CEB085110EB0A0041EB0B01BDE882
:10070000F04D00F055B8C1F30A52C1F3130140F2A5
:10071000FF3341F480119A4202DA0020014670470B
:1007200040F233439A42A2F2334202DC5242FFF7D4
:1007300052BEFFF741BE000030B5041E71F1000447
:1007400004DB4FF00044404264EB0101141E73F1DE
:10075000000405DB1C464FF00043524263EB0403E8
:10076000994208BF904230BD064C074D06E0E06854
:1007700040F0010394E8070098471034AC42F6D3E8
:10078000FFF78EFD74C2000894C20008202A06DB21
:10079000CB17203A41FA02F043EAE07306E041FA4F
:1007A00002F3D040C2F1200291400843194670473D
:1007B00010B5141E73F1000408DA401C41F1000169
:1007C00092185B411A4301D120F0010010BD2DE9C0
:1007D000F04D92469B4611B1B1FA81F202E0B0FAB7
:1007E00080F220329046FFF7E7FD04460F4640EACC
:1007F0000A0041EA0B0153465A46084313D01146FA
:1008000053EA010019D0C8F140025046FFF7E3FD5A
:1008100005460E46504659464246FFF7CDFD084371
:1008200005D0012004E020463946BDE8F08D0020C7
:10083000054346EAE0762C4337430A986305E40A09
:10084000A0EB08000022FD0A44EA47540A3002D512
:1008500000200146E9E7010510196941DDE9084575
:1008600000196941BDE8F04DA2E770B58C1810F889
:10087000015B15F0070301D110F8013B2A1106D1E5
:1008800010F8012B03E010F8016B01F8016B5B1EFF
:10089000F9D12B0705D40023521E0DD401F8013BDA
:1008A000FAE710F8013BCB1A921C03E013F8015B46
:1008B00001F8015B521EF9D5A142D8D3002070BDCA
:1008C00070B50546AC6B606D00F05000A0BB606D6C
:1008D00040F4007060652068006800F00800B0B166
:1008E0002068C06800F4406010BB2068C06800F455
:1008F0000050E8B9606D20F480706065606D00F4B0
:100900008050A8B9606D40F00100606510E020687B
:10091000C06800F0030058B9606D20F48070606515
:10092000606D00F4805018B9606D40F001006065A2
:10093000204600F0AFFE07E0FFE7606D00F010001A
:1009400010B1204600F0A8FE70BD70B50546AC6B36
:10095000606D40F040006065A06D40F00400A0654F
:10096000204600F099FE70BD70B50446A56B284680
:1009700000F091FE70BD70B50446002520688068C7
:1009800000F00300012806D12068006800F0010093
:1009900008B1012000E0002080B32068806800F0EA
:1009A0000D00012800D100E0002050B100BF2068F8
:1009B000806840F002002168886003202168086098
:1009C00009E0606D40F010006065A06D40F001002E
:1009D000A065012070BD01F07FFC05460FE001F02D
:1009E0007BFC401B02280AD9606D40F01000606556
:1009F000A06D40F00100A0650120EBE705E0206854
:100A0000806800F001000028E9D10020E2E7000042
:100A100070B5044600252068806800F003000128B6
:100A200006D12068006800F0010008B1012000E054
:100A3000002088BB206880681C49084008B9012054
:100A400000E0002048B9606D40F010006065A06DC6
:100A500040F00100A065012070BD2068806840F072
:100A600001002168886001F037FC054615E0206828
:100A7000806840F001002168886001F02DFC401B77
:100A800002280AD9606D40F010006065A06D40F04A
:100A90000100A0650120DFE705E02068006800F0A4
:100AA00001000028E3D00020D6E700003F000080CE
:100AB00000BFFEE770B505460C461646042D15D05E
:100AC00007DC7DB1012D0ED0022D0DD0032D50D1AC
:100AD0000BE0202D0BD0212D30D0222D47D0232DFF
:100AE00047D145E046E045E044E043E042E020787D
:100AF000617840EA0120A17840EA0140E17840EACB
:100B000001601E4908602079087160794871A079F8
:100B10008871084601791AA008F042FD174841790A
:100B20001DA008F03DFD1548817922A008F038FD90
:100B30001248016826A008F033FD1BE00F4800783A
:100B400020700E480088000A60700C480068000C95
:100B5000A0700A480068000EE07008480079207113
:100B600006484079607105488079A07102E001E093
:100B700000E000BF00BF002070BD0000140300248F
:100B80006C696E65636F64696E672E666F726D6106
:100B9000743A25640D0A00006C696E65636F6469C0
:100BA0006E672E706172697479747970653A256424
:100BB0000D0A00006C696E65636F64696E672E6470
:100BC000617461747970653A25640D0A0000000053
:100BD0006C696E65636F64696E672E6269747261B9
:100BE00074653A25640D0A000020704710B503496A
:100BF000034806F097FF002010BD000090C20224B9
:100C00003003002470B505460C462846216805F0DF
:100C100057FD044806F062FF2846216808F06CFC86
:100C2000002070BD3003002410B505F0BDFD05F0B7
:100C30006DFD0348006840F004000149086010BDE4
:100C40009CEF00E00948006800F0200060B101203E
:100C50000749087000BF05480830006840F02000D0
:100C600002490831086000BF7047000004040240D8
:100C70002D0000240146087810381823B0FBF3F249
:100C80000848805CC865032A05D908686FF3090025
:100C9000001D886503E008686FF309008865886DAA
:100CA00070470000B4C1000810B500210268174B5E
:100CB0009A4213D8154B8C3B9A420FD30378083BCA
:100CC0001424B3FBF4F1124B03EB81030366104BC6
:100CD0008033436601238B40836616E00378103B24
:100CE0001824B3FBF4F10B4B9A4204D8094BA83BF0
:100CF0009A4200D30831084B03EB81030366064B8D
:100D00008033436601238B40836610BD94540258A0
:100D100000580258B80402400008024010B50268AA
:100D20000179E9B108291BD80E4B9A420CD80D4B1A
:100D30008C3B9A4208D34B1E0B4C04EB8303C366D7
:100D4000094B4033036707E04B1E084C04EB830359
:100D5000C366064B403303674B1E01249C40446727
:100D600010BD000094540258005902580009024076
:100D7000014600208A69D2B98A6A32B1012A0DD0AF
:100D8000022A03D0032A10D10EE000BFCA6A02F083
:100D90008072B2F1807F00D1012007E0CA6AB2F10F
:100DA000C07F00D1012001E000E000BF36E08A6989
:100DB000B2F5005F1BD18A6A32B1012A07D0022A3C
:100DC00003D0032A11D10AE000BF01200EE0CA6A55
:100DD00002F08072B2F1807F00D1012006E0CA6A81
:100DE000B2F1C07F00D1012000E000BF16E08A6AA6
:100DF00032B1012A05D0022A04D0032A0CD103E023
:100E000000BF00BF012008E0CA6A02F08072B2F1A0
:100E1000807F00D1012000E000BF00BF70470000CC
:100E2000F0B5846DD0E919657560C56E15B1D0E96E
:100E30001C657560244E0568B54205D3234E0568D0
:100E4000B54201D8012500E00025CDB190F85C60E5
:100E50003F25B540A56005682D6825F48025066806
:100E6000356005686B608568402D04D10568AA600F
:100E70000568E96026E00568A9600568EA6021E088
:100E8000134E0568B5421DD3114E8C360568B54228
:100E900018D80F4D2D1F2D6890F85C700126BE40AC
:100EA00035430B4E361F356005686B608568402DF5
:100EB00004D10568AA600568E96003E00568A960D7
:100EC0000568EA60F0BD000010000240B80402406E
:100ED000085402587047000070B5052406250726FF
:100EE000344454B108220549204605F069F904222A
:100EF00002491031284605F063F970BDFA0200245A
:100F00002DE9F04104460D4616460027B84600BFBD
:100F100094F85000012802D10220BDE8F0810120A0
:100F200084F8500000BF2046FFF725FD0746CFBBE1
:100F3000606D20F4885040F0020060652068806891
:100F400020F080403043216888602068806820F469
:100F500080302843216888602068806840F0004025
:100F60002168886011E008F10108B8F57A4F0CD3C8
:100F7000606D20F0020040F01000606500BF0020AE
:100F800084F8500000BF0120C7E72068806800F0A7
:100F900000400028E7D1606D20F0020040F0010021
:100FA000606504E0FFE7606D40F01000606500BF21
:100FB000002084F8500000BF3846AEE7F8B502467E
:100FC00000250020009092F83900012800D100E0AF
:100FD00000BFC868B0F1804F00D00AE0FE4E106834
:100FE000B04200D105E0FD4E1068B04200D100E0F3
:100FF00000BF00BF92F85000012801D10220F8BDC7
:10100000012082F8500000BF10688068C0F38000A3
:1010100000287DD11068C0690F780126BE4030439A
:101020001668F061486805281CD21068066B0879BC
:101030004FF4F86797FAA7F7B7FA87F778431F27AF
:10104000874026EA07000F794FF4F86C9CFAACFC55
:10105000BCFA8CFC07FB0CF70E68BE4030431668E8
:10106000306363E048680A281ED21068466B08792E
:10107000401F4FF4F86797FAA7F7B7FA87F7784356
:101080001F27874026EA07000E79761F4FF4F86C79
:101090009CFAACFCBCFA8CFC06FB0CF60F68B74063
:1010A00038431668706341E048680F281ED2106804
:1010B000866B08790A384FF4F86797FAA7F7B7FAFA
:1010C00087F778431F27874026EA07000E790A3EF4
:1010D0004FF4F86C9CFAACFCBCFA8CFC06FB0CF6EA
:1010E0000F68B74038431668B0631FE01068C66BDE
:1010F00008790F384FF4F86797FAA7F7B7FA87F728
:1011000078431F27874026EA07000E790F3E00E04C
:10111000A5E24FF4F86C9CFAACFCBCFA8CFC06FB24
:101120000CF60F68B74038431668F06310688068A3
:1011300000F00C0008B1012000E00020002874D16C
:1011400008680A281DD31068866908780A38382785
:1011500097FAA7F7B7FA87F778430727874026EA71
:1011600007000E780A3E4FF0380C9CFAACFCBCFA33
:101170008CFC06FB0CF68F68B74038431668B061EC
:1011800019E0106840690E78382797FAA7F7B7FA80
:1011900087F77E430727B740B8430F784FF0380CE6
:1011A0009CFAACFCBCFA8CFC07FB0CF78E68BE40CA
:1011B00030431668706148691668F668C6F382069F
:1011C000760000FA06F40869012806D002282DD01E
:1011D000032854D0042874D17BE01068006E00F01E
:1011E00000464FF0F84797FAA7F7B7FA87F708686D
:1011F000B84020430643106806661068006920F472
:1012000000600E7E304316683061487E30B1106851
:10121000006E40F000401668306605E01068006E11
:1012200020F0004016683066CDE0CDE01068406EDA
:1012300000F000464FF0F84797FAA7F7B7FA87F79C
:101240000868B84020430643106846661068006985
:1012500020F480500E7E40EA460016683061487ED9
:1012600030B11068406E40F000401668706605E0CE
:101270001068406E20F0004016687066A3E01068A9
:10128000806E00F000464FF0F84797FAA7F7B7FADC
:1012900087F70868B84020430643106886661068E0
:1012A000006920F400500E7E40EA86001668306126
:1012B000487E38B11068806E40F000401668B06615
:1012C00006E02FE01068806E20F000401668B066DF
:1012D00079E01068C06E00F000464FF0F84797FACA
:1012E000A7F7B7FA87F70868B840204306431068A5
:1012F000C6661068006920F480400E7E40EAC60091
:1013000016683061487E30B11068C06E40F0004011
:101310001668F06605E01068C06E20F000401668A0
:10132000F06650E01068006E00F0F8464FF0F847A5
:1013300097FAA7F7B7FA87F70868B840864205D149
:101340001068006E20F00040166830661068406E2D
:1013500000F0F8464FF0F84797FAA7F7B7FA87F783
:101360000868B840864205D11068406E20F0004001
:10137000166870661068806E00F0F8464FF0F84707
:1013800097FAA7F7B7FA87F70868B840864205D1F9
:101390001068806E20F000401668B0661068C06E5D
:1013A00000F0F8464FF0F84797FAA7F7B7FA87F733
:1013B0000868B840864205D11068C06E20F0004031
:1013C0001668F06600BF00BF1068806800F0030078
:1013D00001280BD1106803E0006002580020024091
:1013E000006800F0010008B1012000E000200028A2
:1013F0007ED1C868B0F1804F0AD01068D0F8C00024
:101400000F780126BE40B0431668C6F8C00047E01A
:101410001068D0F8C0000F780126BE40304316682F
:10142000C6F8C000086809281DD3106886690878C6
:101430000938382797FAA7F7B7FA87F778430727C5
:10144000874026EA07000E78093E4FF0380C9CFAD8
:10145000ACFCBCFA8CFC06FB0CF68F68B74038433A
:101460001668B0611CE0106846690878401C38278F
:1014700097FAA7F7B7FA87F778430727874026EA4E
:1014800007000E78761C4FF0380C9CFAACFCBCFAC6
:101490008CFC06FB0CF68F68B74038431668706109
:1014A000754E1068B04203D0744E1068B04201D13E
:1014B000734B00E0734B0868122803D1986800F45E
:1014C000000070B10868112803D1986800F080709E
:1014D00038B1086813288BD1986800F48000002880
:1014E00086D11068806800F00300012808D100E070
:1014F000AEE01068006800F0010008B1012000E0D3
:10150000002000287ED15C4E1068B04222D15B489A
:101510000830006800F00300012806D15748006831
:1015200000F0010008B1012000E0002070B9564829
:10153000806800F00300012806D15348006800F0DD
:10154000010008B1012000E0002008B1012049E0BD
:10155000002047E0494E1068B04221D146488068DB
:1015600000F00300012806D14348006800F00100A4
:1015700008B1012000E0002070B94348806800F005
:101580000300012806D14048006800F0010008B1BE
:10159000012000E0002008B101200FE000200DE054
:1015A0003548806800F00300012806D13248006801
:1015B00000F0010008B1012000E0002078B92F48B8
:1015C0000830006800F00300012806D12B480068AD
:1015D00000F0010008B1012000E0002008B1012066
:1015E00000E0002070B9086812281AD1264E106851
:1015F000B04216D1986840F4000098602348006813
:10160000234E00E025E0B0FBF6F0C0EB0010C00078
:10161000009002E00098401E009000980028F9D148
:1016200022E00868112808D1174E1068B04204D192
:10163000986840F08070986016E00868132813D10D
:10164000114E1068B0420FD1986840F48000986045
:101650000AE0506D40F020005065012504E0506D17
:1016600040F020005065012500BF002082F85000A6
:1016700000BF2846C3E400000020024000210240D1
:101680000023024000630258006002580C0000244E
:1016900080841E007047704770470000F8B504460C
:1016A00000270026002000900CB90120F8BDE0685A
:1016B00018B1207F012800D100BF606D30B92046ED
:1016C00000F098F90020A06584F850002068806838
:1016D00000F0005028B12068806820F00050216898
:1016E00088602068806800F08050A8B92068806811
:1016F00040F0805021688860B5480068B549B0FB6B
:10170000F1F000EB80004000009002E00098401EE5
:10171000009000980028F9D12068806800F080507F
:1017200040B9606D40F010006065A06D40F00100B0
:10173000A0650127606D00F0100000286FD12068BF
:101740008068C0F380000028F8D1606D40F002008E
:101750006065A1492068884203D0A049206888427A
:1017600001D19F4D00E09F4D2068806800F003008C
:10177000012806D12068006800F0010008B10120AE
:1017800000E00020002877D193492068884222D1C8
:1017900092480830006800F00300012806D18F4805
:1017A000006800F0010008B1012000E0002070B9DD
:1017B0008D48806800F00300012806D18A4800683F
:1017C00000F0010008B1012000E0002008B1012074
:1017D0004BE0002049E081492068884222D17E48C0
:1017E000806800F00300012806D17B48006800F003
:1017F000010008B1012000E0002070B97A4880683B
:1018000000F00300012806D17748006800F00100CD
:1018100008B1012000E0002010B1012010E0D0E06C
:1018200000200DE06C48806800F00300012806D11C
:101830006948006800F0010008B1012000E00020C4
:1018400078B966480830006800F00300012806D126
:101850006248006800F0010008B1012000E00020AB
:1018600010B1012001E007E0002028B9A86820F4A9
:101870007C1061680843A860607D4FF4005191FAC4
:10188000A1F1B1FA81F18840216B0843A1680843B6
:10189000217F4FF4803292FAA2F2B2FA82F29140A2
:1018A00040EA0106207F012809D1206A401E4FF43A
:1018B000602191FAA1F1B1FA81F188400643606A92
:1018C000012805D0A06A18B1D4E9090108430643EC
:1018D0002068C0684549084030432168C8602068D6
:1018E000806800F00C0008B1012000E0002070BB0F
:1018F000207D4FF4804191FAA1F1B1FA81F1884045
:10190000E16A40EA01062068C06844F203018843A6
:1019100030432168C86094F83900012818D1606A02
:10192000012801D0A06A00B900BFA08F012141EABF
:101930000041206C0843616C0843A16C0843216896
:1019400009692B4A114008432168086106E01EE03E
:101950002068006920F001002168086120680069A2
:1019600020F07040616B08432168086194F83800EA
:10197000012806D12068806840F480702168886062
:1019800005E02068806820F4807021688860E06845
:10199000012809D12068006B20F00F00A169491EC1
:1019A00008432168086305E02068006B20F00F0001
:1019B00021680863606D20F0020040F0010060655E
:1019C00004E0606D40F010006065012738466DE668
:1019D0000C00002480841E000020024000210240F0
:1019E00000230240006302580060025803C0F0FF69
:1019F0001EF800FC10B586B004461E4920688842D7
:101A000036D100BF00BF1C48006840F020001A49D2
:101A100008600846006800F02000009000BF00BF8A
:101A200000BF00BF00BF14480830006840F001004C
:101A30001149083108600846006800F00100009074
:101A400000BF00BF00BF0C488038006820F4403061
:101A500040F40030084980390860202001900320BC
:101A600002900020039001A9044800F0FDFA00BF95
:101A700006B010BD00200240D844025800000258B1
:101A80002DE9F04104460D4616460027206880687F
:101A9000C0F3800000287CD100BF94F850000128DA
:101AA00002D10220BDE8F081012084F8500000BF7F
:101AB00042492068884203D041492068884214D1B5
:101AC0004048006800F01F0068B13E48006800F020
:101AD0001F00052807D03B48006800F01F000928B8
:101AE00001D0012002E0002000E0002000285BD1AE
:101AF0002046FEF78DFF0746002F50D1606D00F4A1
:101B0000805020B1A06D20F00600A06501E000200B
:101B1000A065606D40F60161884340F480706065A7
:101B200026492068884203D025492068884201D18F
:101B3000012007E02348006800F01F0008B90120D9
:101B400000E0002018B1606D20F4801060651E4830
:101B5000E16CC8631D48E16C08641D48E16CC86411
:101B60001C20216808602068406840F0100021684F
:101B70004860226802F1400133462A46E06C00F0DA
:101B8000ADF900BF002084F8500000BF20688068D5
:101B900000E00FE040F00400216888600BE000BF27
:101BA000002084F8500006E0012700BF002084F8E0
:101BB000500000E00227384674E700000020024091
:101BC0000021024008230240C108000869090008FA
:101BD0004B09000810B504460CB9012010BD94F85B
:101BE0003500022803D0802060650120F6E73449E3
:101BF0002068884205D333492068884201D80120F3
:101C000000E00020C0B1042084F835002C49206891
:101C100088420AD32B492068884206D82068006889
:101C200020F001002168086048E02068006820F08A
:101C300001002168086041E02068006820F00E0083
:101C4000216808601E49206888420AD31D4920681F
:101C5000884206D82068006820F0010021680860EA
:101C600005E02068006820F0010021680860206E0F
:101C7000006820F48070216E086094F85C100120E8
:101C8000884011490860D4E919104860E06E40B1FD
:101C9000E06E006820F48070E16E0860D4E91C10EA
:101CA000486000BF002084F8340000BF012084F8A1
:101CB0003500206D10B12046216D884700208DE74A
:101CC00010000240B8040240045402582DE9F041CB
:101CD0000446002500F000FB0646002714B9012049
:101CE000BDE8F08179492068884205D378492068A9
:101CF000884201D8012000E00020002871D0606AED
:101D000000B100BF00BF002084F8340000BF0220F3
:101D100084F835006D49206888420AD36C492068F0
:101D2000884206D82068006820F001002168086019
:101D300005E02068006820F00100216808600BE0E1
:101D400000F0CAFA801B052806D920206065032010
:101D500084F835000120C3E72068006800F0010026
:101D60000028EDD1206805685A480540D4E90201F1
:101D700008432169084361690843A1690843E1698F
:101D80000843216A08430543606A042803D1D4E963
:101D90000B0108430543206805602068456925F06C
:101DA0000705606A0543606A04280DD1A06A0543EF
:101DB000E06A48B12046FEF7DBFF28B140206065AD
:101DC000012084F835008BE7206845612046FEF746
:101DD00051FF074694F85C103F208840B8604DE002
:101DE000FFE73D492068884206D33B498C31206893
:101DF000884201D8012000E00020B8B300BF0020D5
:101E000084F8340000BF022084F83500206805689B
:101E100047F6F0708543A068402801D1102105E005
:101E2000A068802801D1C10100E00021E06841EAFA
:101E3000D001206941EAD001606941EAD001A0697E
:101E400041EAD0002022E16902EAD1010843216A77
:101E500040EA11100543206805601F492068401AB8
:101E60001421B0FBF1F08000E06507E0FFE74020BF
:101E70006065032084F83500012031E72046FEF735
:101E800013FFA068802801D1002060602079216EB6
:101E90000860D4E919104860606860B1606808287B
:101EA00009D82046FEF73AFF0020E16E0860D4E929
:101EB0001C10486003E00020E06620676067002097
:101EC0006065012084F83500002009E71000024019
:101ED000B80402403F8010FE085402582DE9F0413A
:101EE00004460D4616461F464FF0000814B901205F
:101EF000BDE8F08100BF94F83400012801D1022030
:101F0000F6E7012084F8340000BF94F8350001287A
:101F10007CD1022084F835000020606541492068AA
:101F200088420AD340492068884206D82068006861
:101F300020F001002168086005E02068006820F0BA
:101F40000100216808603B46324629462046FEF7DC
:101F500067FF34492068884205D3334920688842A6
:101F600001D8012000E00020B0B12068006820F016
:101F70001E0040F01600216808602068406940F0AB
:101F8000800021684861206CB0B12068006840F092
:101F90000800216808600FE02068006820F00E004B
:101FA00040F00A0021680860206C28B120680068B1
:101FB00040F0040021680860206E006800F4803062
:101FC00028B1206E006840F48070216E0860E06ED9
:101FD00028B1E06E006840F48070E16E086011493D
:101FE000206888420BD310492068884207D82068AF
:101FF000006840F001002168086011E006E02068F8
:10200000006840F001002168086009E000BF00207E
:1020100084F8340000BF4FF4006060654FF00108A1
:10202000404665E710000240B804024070B504461F
:1020300000F052F906462546681C10B104480078A5
:10204000054400BF00F048F9801BA842FAD370BDD8
:102050002C0000240348006840F00100014908609A
:102060007047000020040058F8B502460B460021D6
:10207000002600240020824D00BFFCE0012707FA63
:1020800001F61F6807EA0604B4427CD15F68022F9C
:1020900002D05F68122F1AD14FEAD10C02F120074B
:1020A00057F82C004F074FEAD76C0F2707FA0CF7A9
:1020B000B8434FEA417C4FEADC6C1F6907FA0CF722
:1020C00038434FEAD10C02F1200747F82C00106882
:1020D0004FEA410C032707FA0CF7B8431F7907F0C2
:1020E00003074FEA410C07FA0CF7384310605F68AA
:1020F000012F08D05F68022F05D05F68112F02D032
:102100005F68122F17D190684FEA410C032707FA36
:102110000CF7B8434FEA410CDF6807FA0CF7384375
:102120009060506801278F40B8431F79C7F30017AC
:102130008F4038435060D0684FEA410C032707FABC
:102140000CF7B8434FEA410C9F6807FA0CF7384385
:10215000D0605F6807F08057B7F1805F95D100BF0E
:10216000484F3F6847F00207DFF818C1CCF800700D
:1021700067463F6807F00207009700BF00BF424F65
:102180004FEA910C00E075E057F82C008F074FEAFA
:10219000177C0F2707FA0CF7B8433C4FBA4201D11E
:1021A00000272DE03A4FBA4201D1012728E0394FEC
:1021B000BA4201D1022723E0374FBA4201D10327A7
:1021C0001EE0364FBA4201D1042719E0344FBA421B
:1021D00001D1052714E0334FBA4201D106270FE0A1
:1021E000314FBA4201D107270AE0304FBA4201D13C
:1021F000082705E02E4FBA4201D1092700E00A273F
:102200004FEA817C4FEA1C7C07FA0CF738431E4FDB
:102210004FEA910C47F82C002868A0435F6807F448
:102220008037B7F5803F00D1204328606868A0431D
:102230005F6807F40037B7F5003F00D120436860BE
:102240004FF0B0473868A0435F6807F48017B7F5D0
:10225000801F00D120434FF0B04738607868A0431A
:102260005F6807F40017B7F5001F00D120434FF057
:10227000B0477860491C1029FFF400AFF8BD00009A
:1022800080000058F4440258080400580000025826
:102290000004025800080258000C025800100258AE
:1022A0000014025800180258001C0258002002585E
:1022B00000240258024613690B400BB1012000E0D4
:1022C0000020704742694A40426170470AB1018369
:1022D00000E041837047000001480068704700003B
:1022E0002400002403480068034909780844014990
:1022F00008607047240000242C00002410B503203F
:1023000000F0D0F8002000F007F808B1012010BD5F
:1023100000F078F80020FAE770B504460E4800781F
:102320004FF47A71B1FBF0F00C490968B1FBF0F59C
:10233000284602F0D3FE08B1012070BD102C07D250
:1023400000222146501E00F06EF80548046001E0AE
:102350000120F2E70020F0E72C0000240C0000240C
:10236000280000244178154A11600178F9B1121D46
:1023700041681160017B0907C27A41EA0261827AF1
:1023800041EAC241427B41EA8241827B41EA4241C9
:10239000C27B41EA0241427A41EA0221027A41EAE1
:1023A000420102781143054A0832116005E000211C
:1023B000024A121D1160121D1160704798ED00E075
:1023C0000748006820F480300549086004487030F0
:1023D000006820F001000249703108607047000079
:1023E00024ED00E040F00101054A11600449703914
:1023F000096841F48031024A703A11607047000068
:1024000094ED00E0704701460846002809DB00F023
:102410001F0301229A4043099B0003F1E023C3F804
:10242000002100BF70472DE9F05F80460D4616463B
:10243000002707F0D7F8074639462A46334601F009
:102440000700C0F1070ABAF1040F02D94FF0040ADD
:1024500001E0C0F1070AD14600F1040ABAF1070F02
:1024600002D24FF0000A01E0A0F1030AD4464FF077
:10247000010A0AFA09FAAAF1010A0AEA020A0AFAA0
:102480000CFA4FF0010B0BFA0CFBABF1010B0BEA52
:10249000030B4AEA0B042146404607F0ABF8BDE8BF
:1024A000F09F000000BF00F00702064B19684FF6CE
:1024B000FF031940044B0B4343EA0221014B19600F
:1024C00000BF70470CED00E00000FA0502461168FD
:1024D0000120C2F8F803886B40F400308863886BF1
:1024E00040F48020886300207047000001460A689D
:1024F0000120C1F8F403002081F8EC03906940F05A
:1025000000609061506D024B184350650020704789
:1025100003000010704702461068416200207047B7
:10252000F0B503461446002500221868426A21B916
:1025300042EA04401E68B06219E01868806A02EB43
:102540001042002508E0186800F5827050F8250058
:1025500002EB1042681CC5B2481EA842F3DC42EAF6
:102560000447186800F582704E1E40F8267000205F
:10257000F0BD000010B50446012003490870D4F8EE
:10258000FC0305F0D3FD10BDC102002470B5044664
:102590000D46C5EBC50304F1380101EB8301CA68A0
:1025A0002946D4F8FC0305F011FD70BD70B5044652
:1025B0000D46C5EBC50304F5FC7101EB8301CA6848
:1025C0002946D4F8FC0305F06EFD70BD10B5044635
:1025D00000200549087005A006F0E2FFD4F8FC03CE
:1025E00005F0A7FD10BD0000C10200245553422094
:1025F00044657669636520446973636F6E6E6563D5
:102600007465642E0D0A000070B504460D46002660
:1026100005F08000802808D105F07F00C0EBC001E4
:1026200004F1380000EB810607E005F07F00C0EB05
:10263000C00104F5FC7000EB810605F07F003070EE
:1026400005F08000C009707000BF94F8B80301283D
:1026500001D1022070BD012084F8B80300BF3146CB
:10266000206806F011FA00BF002084F8B80300BF0C
:1026700000BFEFE770B504460D46002605F0800068
:10268000802808D105F07F00C0EBC00104F13800BC
:1026900000EB810605E0C5EBC50104F5FC7000EB1D
:1026A00081060020B07005F07F003070C5F3C010C7
:1026B000707000BF94F8B803012801D1022070BDEA
:1026C000012084F8B80300BF3146206806F026FCDC
:1026D00000BF002084F8B80300BF00BFEFE7024648
:1026E00001F00F00C0EBC00302F5FC7000EB8300AB
:1026F000008B80B270472DE9F04705460E469046A4
:102700001F464FF00009002406F08000802808D101
:1027100006F07F00C0EBC00105F1380000EB81043A
:1027200007E006F07F00C0EBC00105F5FC7000EB90
:10273000810406F07F00207006F08000C009607000
:10274000C4F80880E770607808B12078E080022F34
:1027500001D10020207100BF95F8B803012802D1F3
:102760000220BDE8F087012085F8B80300BF2146AC
:10277000286806F0A7F800BF002085F8B80300BF5E
:102780004846EEE72DE9F04104460E4617469846C6
:10279000002506F07F00C0EBC00104F5FC7000EBE3
:1027A0008105EF60C5F814800020A861687006F00C
:1027B0007F0028702069012800D12F6106F07F007A
:1027C00028B9227C2946206806F0AEFA04E0227C73
:1027D0002946206806F02CFC0020BDE8F08170B589
:1027E00004460D46002605F08000802808D105F03B
:1027F0007F00C0EBC00104F1380000EB810605E06A
:10280000C5EBC50104F5FC7000EB81060120B0703A
:1028100005F07F003070C5F3C010707000BF94F8F1
:10282000B803012801D1022070BD012084F8B8034B
:1028300000BF3146206806F0B5FB05F07F0028B9DF
:10284000217C04F56F72206806F046FB00BF002073
:1028500084F8B80300BF00BFE6E72DE9F041044665
:102860000E4617469846002506F07F00C0EBC001D3
:1028700004F1380000EB8105EF60C5F814800020FA
:10288000A8610120687006F07F0028702069012887
:1028900000D12F6106F07F0028B9227C29462068EC
:1028A00006F042FA04E0227C2946206806F0C0FBCC
:1028B0000020BDE8F08100002DE9FC5F0446266899
:1028C0004FF0000B002001908046002500908146CB
:1028D0008246FE4F206806F06BFD00287DD12068FF
:1028E00006F09EFD08B9BDE8FC9F206806F098FD43
:1028F00000F00200022801D121684861206806F03A
:102900008FFD00F40020B0F5002F67D1002520686E
:1029100006F05CFD0190A8E0019800F0010000289D
:102920007ED0E9B2206806F070FD804608F0010014
:10293000002860D0012106F5306000EB4510816071
:10294000306CE34988420ED3206901280BD1D6F8B8
:10295000080B00F4004030B14FF4004106F5306040
:1029600000EB45108160206901282BD1C5EBC50122
:1029700004F5FC7000EB8100816806F5306000EB27
:1029800045100069C0F31200091AC5EBC50204F531
:10299000FC7000EB82008161C5EBC50104F5FC70A1
:1029A00000EB8100C5EBC502C16804F5FC7000EBCB
:1029B000820080680144C5EBC50204F5FC7000EBA1
:1029C0008200C160E9B22046FFF7F0FD20690128CE
:1029D00011D185B9C5EBC50101E0EEE249E004F58E
:1029E000FC7000EB8100406928B904F56F72012189
:1029F000206806F071FA08F0080008281DD1306C34
:102A0000B349884210D3206901280DD1D6F8080BAC
:102A100000F4004040B14FF4004106F5306000E0A2
:102A20001FE000EB45108160204600F071FC08219A
:102A300006F5306000EB4510816008F010001028AA
:102A400005D1102106F5306000EB4510816008F0DB
:102A50002000202805D1202106F5306000EB45102C
:102A600081606D1C019840080190019800287FF456
:102A700053AF206806F0D4FC00F48020B0F5802F1E
:102A80007DD1206806F099FC0190002585E0019831
:102A900000F0010000287CD0E9B2206806F09FFC1D
:102AA000804608F00100E8B30120A840009040F6FD
:102AB000340080590099884340F63401885101213F
:102AC00006F5106000EB451081602069012815D1E2
:102AD000C5EBC50104F1380000EB8100C5EBC50270
:102AE000C16804F1380000EB820080680144C5EB46
:102AF000C50204F1380000EB8200C160E9B2204653
:102B0000FFF744FD2069012810D15DB9C5EBC5016F
:102B100004F1380000EB8100406918B904F56F72C8
:102B2000012100E002E0206806F0D6F908F0080074
:102B3000082805D1082106F5106000EB45108160DA
:102B400008F01000102805D1102106F5106000EBE8
:102B50004510816008F04000402805D1402106F56D
:102B6000106000EB4510816008F00200022805D1DA
:102B7000022106F5106000EB4510816001E010E0D5
:102B800007E008F08000802803D12946204603F0A2
:102B90000BFC6D1C019840080190019800287FF4FF
:102BA00076AF206806F03CFC00F00040B0F1004F2A
:102BB0001AD140F60400805920F0010140F60400CB
:102BC000815194F8EC03012807D1002084F8EC032C
:102BD00000212046FFF79EFC02E0204600F064FB47
:102BE0004FF0004021684861206806F019FC00F4AD
:102BF0000060B0F5006F0CD140F60800805900F07D
:102C0000010010B1204600F097FB4FF400602168EE
:102C10004861206806F004FC00F00060B0F1006F2D
:102C200017D14FF000602168486194F8EC0368B94F
:102C3000012084F8EC032068406DC0F38300C4F8E1
:102C4000F00301212046FFF765FC02E0204600F07A
:102C500073FB206806F0E4FB00F48050B0F5805F61
:102C600060D140F60400805920F0010140F60400D4
:102C700081511021206806F061FB4FF0000B0CE041
:102C8000FF2106F5106000EB4B10816006F5306007
:102C900000EB4B1081600BF1010B60685845EFD8D9
:102CA0004FF0FF3140F618008151001D805940F06F
:102CB000011140F61C008151206BA0B1D6F88408A8
:102CC00040F00B01C6F8841804E000000084D71718
:102CD0000A31544F40F64400805940F00B0140F651
:102CE000440081510EE040F61400805940F00B0181
:102CF00040F614008151001F805940F00B014FF441
:102D000001608151D6F8000820F4FE60C6F8000882
:102D1000217C04F56F72206806F0DEF84FF48050D5
:102D200021684861206806F07BFB00F40050B0F594
:102D3000005F7AD1206805F027FE2068C06820F483
:102D400070502168C860206806F010FB58B9002157
:102D5000E1604FF4007161612068C06840F4105078
:102D60002168C86082E00321E1604021616101F0D7
:102D7000D5FC07469248874209D39248874206D23B
:102D80002068C06840F470502168C8606EE08D48CB
:102D9000874209D38C48874206D22068C06840F435
:102DA00060502168C86061E08748874209D387483E
:102DB000874206D22068C06840F450502168C8603D
:102DC00054E08248874209D38148874206D220686E
:102DD000C06840F440502168C86047E07C488742A2
:102DE00009D37C48874206D22068C06840F430503E
:102DF0002168C8603AE07748874209D3764887421D
:102E000006D22068C06840F420502168C8602DE0D8
:102E1000714887420AD37148874207D22068C06848
:102E200040F410502168C86020E026E06B488742DB
:102E300009D36B48874206D22068C06840F400502E
:102E40002168C86012E06648874209D36548874216
:102E500006D22068C06840F4E0502168C86005E0F0
:102E60002068C06840F4C0502168C860204600F067
:102E7000CFF94FF4005021684861206806F0D0FA7D
:102E800000F01000102845D12068806920F0100063
:102E900021688861D6F8209009F00F00C0EBC001CE
:102EA00004F5FC7000EB810AC9F3434002281AD1F3
:102EB00047F6F07009EA000030B3C9F30A12304651
:102EC000DAF80C1006F0B2FAC9F30A11DAF80C00BD
:102ED0000844CAF80C00C9F30A11DAF818000844CB
:102EE000CAF8180010E0C9F3434006280CD10822A4
:102EF00004F56F71304606F099FAC9F30A11DAF851
:102F000018000844CAF818002068806940F01000D2
:102F100021688861206806F083FA00F0080008281C
:102F200005D1204600F0D4F90820216848612068C6
:102F300006F076FA00F48010B0F5801F07D1E9B2F0
:102F4000204600F051F84FF4801021684861206855
:102F500006F066FA00F40010B0F5001F07D1E9B2E0
:102F6000204600F04AF84FF40010216848612068BC
:102F700006F056FA00F08040B0F1804F06D12046AE
:102F8000FFF7F8FA4FF0804021684861206806F0AA
:102F900047FA00F0040004280FD12068D0F804900C
:102FA00009F00400042802D12046FFF70FFB206837
:102FB000406840EA09002168486000BF93E40000CF
:102FC000C0ACD800C0E1E4000024F4008073060126
:102FD000A0491A01002D310140A44C0100366E01B8
:102FE00020ABA6010048E80170B504460D4629460D
:102FF000D4F8FC0305F002F970BD70B504460D4627
:103000002946D4F8FC0305F0FCF870BD30B58BB050
:103010000446002514B901200BB030BD032084F80C
:10302000B903204600F0A0F8206805F075FE2822BC
:1030300004F110016846FDF77EF994E80F0005F0F1
:10304000C5FC0021206806F005FA002530E00121CA
:10305000C5EBC50204F1380000EB82004170C5EBFE
:10306000C50204F1380000F82250C5EBC50200EBA0
:103070008200C5800021C5EBC50204F1380000EBD9
:103080008200C170C5EBC50204F1380000EB82007C
:103090008160C5EBC50204F1380000EB8200C1601D
:1030A000C5EBC50204F1380000EB820041616D1CE4
:1030B0000F2DCCD3002536E00021C5EBC50204F569
:1030C000FC7000EB82004170C5EBC50204F5FC709A
:1030D00000F82250C5EBC50204F1380000EB820075
:1030E000C580C5EBC50204F5FC7000EB8200C17021
:1030F000C5EBC50204F5FC7000EB82008160C5EBF6
:10310000C50204F5FC7000EB8200C160C5EBC5028E
:1031100004F5FC7000EB82004161206800F58270CC
:1031200040F825106D1C0F2DC6D3282204F1100184
:103130006846FDF700F994E80F0005F017FD01203F
:1031400084F8B903A06A012802D12046FFF7CEF91E
:10315000606A012802D12046FFF7B8F9206805F01F
:10316000F6FC002058E7000010B5B6B004464FF456
:10317000802002904FF44010239002A800F062FBE0
:1031800020492068884239D100BF1F48006840F0BC
:1031900001001D4908600846006800F00100019028
:1031A00000BF00BF4FF4C050319002203290002089
:1031B0003390032034900A20359031A91348FEF74C
:1031C00053FF0121032003F05AF900BF0E480838CD
:1031D000006840F000600C49083908600846006843
:1031E00000F00060019000BF00BF002201216520B7
:1031F000FFF719F96520FFF706F900E000BF36B0C8
:1032000010BD000000000840E044025800000258D1
:1032100070B504460125E06810B102280AD104E027
:103220000CA006F0BDF9002509E011A006F0B8F9E0
:10323000012504E015A006F0B3F9012500BF00BF89
:10324000D4F8FC0305F000F82946D4F8FC0305F097
:1032500035F870BD55534220446576696365204C4E
:1032600069627261727920205B48535D0D0A00002B
:1032700055534220446576696365204C69627261EA
:10328000727920205B46535D0D0A000055534220A1
:10329000446576696365204C6962726172792020A9
:1032A0005B46533F5D0D0A0010B5044603A006F0CF
:1032B00077F9D4F8FC0304F0E9FF10BD44657669A2
:1032C000636520526573756D65640D0A000000002A
:1032D00010B50446D4F8FC0304F0DFFF10BD70B550
:1032E00004460D4600BF94F8B803012801D102201E
:1032F00070BD012084F8B80300BF2946206806F09D
:10330000C1F800BF002084F8B80300BF00BFEFE79A
:1033100010B5044604F56F71D4F8FC0304F0E2FF25
:1033200010BD10B50446206805F002FC206805F0C9
:10333000E7FF002010BD000010B50446002005493D
:10334000087005A006F02CF9D4F8FC0305F013F87A
:1033500010BD0000C1020024446576696365204900
:103360006E2073757370656E64206D6F64652E0DCD
:103370000A0000000348006840F0807001490860BE
:10338000704700000C48025810B501F00FFA0949C7
:10339000096801F470614FF4807292FAA2F2B2FAF5
:1033A00082F2D140044A515CC84004490860084692
:1033B000006810BD184402588CC100080C0000249D
:1033C00010B501F0ABF90749096801F0700110224E
:1033D00092FAA2F2B2FA82F2D140034A515CC8409A
:1033E00010BD0000204402588CC1000870B5014691
:1033F00000220120002300249FED811AB0EE410A33
:103400009FED7F1AF0EE410A7E4D2D6805F0030214
:103410007C4D2D68C5F305307A4D2D1D2D6805F0C6
:103420001003784D14352D68C5F3CC0515FB03F555
:1034300001EE105AB8EE411AB0EE410A22B1012A4B
:103440004DD0022A7DD169E06E4D283D2D68C5F32F
:1034500040152DB36B4D283D2D68C5F3C1066A4D4F
:1034600025FA06F4B4FBF0F501EE105AF8EE411A15
:103470009FED661A80EE012A624D10352D68C5F366
:10348000080501EE105AB8EE411A32EE011AB7EEF5
:10349000002A31EE021A21EE811AF0EE410A1DE0F7
:1034A000594DB5FBF0F501EE105AF8EE411A9FEDBB
:1034B000571A80EE012A534D10352D68C5F30805C3
:1034C00001EE105AB8EE411A32EE011AB7EE002A98
:1034D00031EE021A21EE811AF0EE410A5EE04C4D07
:1034E000B5FBF0F501EE105AB8EE412A9FED471AF0
:1034F000C0EE011A434D10352D68C5F3080501EEE5
:10350000105AB8EE411A31EE811AF7EE001A31EE78
:10351000211A22EE011AF0EE410A3FE03D4DB5FBC3
:10352000F0F501EE105AF8EE411A9FED381A80EED0
:10353000012A344D10352D68C5F3080501EE105AE7
:1035400000E00CE0B8EE411A32EE011AB7EE002AA4
:1035500031EE021A21EE811AF0EE410A1EE02C4DE6
:10356000B5FBF0F501EE105AB8EE412A9FED271A8F
:10357000C0EE011A234D10352D68C5F3080501EE84
:10358000105AB8EE411A31EE811AF7EE001A31EEF8
:10359000211A22EE011AF0EE410A00BF00BF194DB8
:1035A00010352D68C5F346256D1C01EE105AB8EE96
:1035B000411AC0EE811ABCEEE11A81ED001A114DDC
:1035C00010352D68C5F306456D1C01EE105AB8EE96
:1035D000411AC0EE811ABCEEE11A81ED011A094DC3
:1035E00010352D68C5F306656D1C01EE105AB8EE56
:1035F000411AC0EE811ABCEEE11A81ED021A70BDCB
:1036000000000000284402580090D003000000464B
:1036100000093D0040787D0170B50146002201207F
:10362000002300249FED811AB0EE410A9FED7F1A1E
:10363000F0EE410A7E4D2D6805F003027C4D2D68A9
:10364000C5F305507A4D2D1D2D6805F48073784D16
:103650001C352D68C5F3CC0515FB03F501EE105A9A
:10366000B8EE411AB0EE410A22B1012A4DD0022A29
:103670007DD169E06E4D283D2D68C5F340152DB311
:103680006B4D283D2D68C5F3C1066A4D25FA06F439
:10369000B4FBF0F501EE105AF8EE411A9FED661AF0
:1036A00080EE012A624D18352D68C5F3080501EE3C
:1036B000105AB8EE411A32EE011AB7EE002A31EE76
:1036C000021A21EE811AF0EE410A1DE0594DB5FBB8
:1036D000F0F501EE105AF8EE411A9FED571A80EE00
:1036E000012A534D18352D68C5F3080501EE105A0F
:1036F000B8EE411A32EE011AB7EE002A31EE021A84
:1037000021EE811AF0EE410A5EE04C4DB5FBF0F57A
:1037100001EE105AB8EE412A9FED471AC0EE011A89
:10372000434D18352D68C5F3080501EE105AB8EE63
:10373000411A31EE811AF7EE001A31EE211A22EE0B
:10374000011AF0EE410A3FE03D4DB5FBF0F501EE08
:10375000105AF8EE411A9FED381A80EE012A344DC6
:1037600018352D68C5F3080501EE105A00E00CE08D
:10377000B8EE411A32EE011AB7EE002A31EE021A03
:1037800021EE811AF0EE410A1EE02C4DB5FBF0F55A
:1037900001EE105AB8EE412A9FED271AC0EE011A29
:1037A000234D18352D68C5F3080501EE105AB8EE03
:1037B000411A31EE811AF7EE001A31EE211A22EE8B
:1037C000011AF0EE410A00BF00BF194D18352D68EF
:1037D000C5F346256D1C01EE105AB8EE411AC0EE35
:1037E000811ABCEEE11A81ED001A114D18352D68D1
:1037F000C5F306456D1C01EE105AB8EE411AC0EE35
:10380000811ABCEEE11A81ED011A094D18352D68B7
:10381000C5F306656D1C01EE105AB8EE411AC0EEF4
:10382000811ABCEEE11A81ED021A70BD00000000A1
:10383000284402580090D0030000004600093D00D3
:1038400040787D012DE9F04104464FF00008002743
:1038500000250026206800F0006000283AD0606E45
:1038600048B1B0F5801F0DD0B0F5001F15D0B0F5F0
:10387000401F1FD11DE0FB48006840F40030F949AB
:10388000086019E0F748006840F40010F549086046
:10389000201D02F01DFE05460EE0F248006840F0D3
:1038A0008070F049086004F1240002F08DFE0546A6
:1038B00002E001E0012500BF00BF55B9E94824300E
:1038C000006820F44010616E0843E6492431086026
:1038D00000E02E43208800F48070A8B3606D0528B6
:1038E00024D2DFE800F0030A15212200DD48006839
:1038F00040F40030DB4908601AE0DA48006840F420
:103900000020D8490860201D02F0E2FD05460FE0C6
:10391000D448006840F48000D249086004F12400D3
:1039200002F052FE054603E002E001E0012500BF7F
:1039300000BF55B9CB482430006820F00700616D06
:103940000843C8492431086000E02E43208800F471
:103950000070D8B3A06D80281CD003DC40B1402893
:1039600026D10CE0C02821D0B0F5807F20D11EE008
:10397000BC48006840F40030BA4908601AE0B94811
:10398000006840F40020B7490860201D02F0A0FD47
:1039900005460FE0B348006840F48000B149086074
:1039A00004F1240002F010FE054603E002E001E00D
:1039B000012500BF00BF55B9AA482430006820F493
:1039C000E070A16D0843A7492431086000E02E4350
:1039D000208800F4806078B3D4F8A400B0F5800F9C
:1039E0001ED004DC50B1B0F5001F28D10DE0B0F5B9
:1039F000C00F22D0B0F5000F21D11FE09948006818
:103A000040F40030974908601BE09648006840F495
:103A1000002094490860201D02F05AFD054610E080
:103A20009048006840F480008E49086004F124004A
:103A300002F0CAFD054604E012E002E001E00125C3
:103A400000BF00BF5DB987482C30006820F46000DB
:103A5000D4F8A410084383492C31086000E02E43B9
:103A6000208800F4006078B3D4F8A800B0F1007F9B
:103A70001ED004DC50B1B0F1807F28D10DE0B0F150
:103A8000407F22D0B0F1806F21D11FE075480068DF
:103A900040F40030734908601BE07248006840F44D
:103AA000002070490860201D02F012FD054610E05C
:103AB0006C48006840F480006A49086004F1240002
:103AC00002F082FD054604E012E002E001E001257B
:103AD00000BF00BF5DB963482C30006820F0E06093
:103AE000D4F8A81008435F492C31086000E02E4349
:103AF000206800F0007050B3A06CC8B1102804D04A
:103B0000202809D0302814D111E05648006840F42C
:103B10000030544908600EE05248006840F400103C
:103B200050490860201D02F0D3FC054603E002E086
:103B300001E0012500BF00BF55B94A4820300068A8
:103B400020F03000A16C084346492031086000E0B5
:103B50002E43208800F4805078B3E06DB0F5005F0C
:103B60001ED004DC50B1B0F5805F28D10DE0B0F577
:103B7000405F21D0B0F5804F21D11FE03948006867
:103B800040F40030374908601BE03648006840F4D4
:103B9000002034490860201D02F09AFC054610E020
:103BA0003048006840F480002E49086004F1240089
:103BB00002F00AFD054604E003E010E001E0012503
:103BC00000BF00BF55B927482430006820F4E0400A
:103BD000E16D084323492431086000E02E4320882A
:103BE00000F40050E0B3206EB0F5403F27D007DC72
:103BF00068B1B0F5803F0BD0B0F5003F22D112E0A4
:103C0000B0F5802F1CD0B0F5A02F1BD119E01BE020
:103C10001448006840F4801012490860201D02F02A
:103C200057FC054610E00F48006840F400000D49BD
:103C3000086004F1240002F0C7FC054604E003E03C
:103C400002E001E0012500BF00BF6DB90548243046
:103C5000006820F4E020216E084302492431086006
:103C600003E000002C4402582E43208800F48040DA
:103C700078B3D4F8AC00B0F1405F27D007DC68B16E
:103C8000B0F1805F0BD0B0F1005F23D112E0B0F152
:103C9000804F1CD0B0F1A04F1CD119E01CE0FA48B5
:103CA000006840F48010F8490860201D02F010FC04
:103CB000054611E0F448006840F40000F24908604D
:103CC00004F1240002F080FC054605E004E003E076
:103CD00002E010E0012500BF00BF5DB9EA482C30CA
:103CE000006820F0E040D4F8AC100843E6492C31DD
:103CF000086000E02E43208800F4004048B3E06EE6
:103D0000C0B1B0F1805F03D0B0F1005F13D106E025
:103D1000DD48006840F40030DB4908600DE0DA4817
:103D2000006840F48010D8490860201D02F0D0FBE4
:103D3000054602E001E0012500BF00BF55B9D248A9
:103D40002430006820F04050E16E0843CE49243111
:103D5000086000E02E43206800F0807050B3606C73
:103D6000C8B1012804D0022809D0032814D111E0D9
:103D7000C548006840F40030C34908600EE0C248FE
:103D8000006840F40010C0490860201D02F0A0FB4C
:103D9000054603E002E001E0012500BF00BF55B980
:103DA000B9482030006820F00300616C0843B64930
:103DB0002031086000E02E43206800F48000E8B362
:103DC000B248006840F48070B0490860FEF784FA99
:103DD000074606E0FEF780FAC01B642801D90325D8
:103DE00005E0AA48006800F480700028F2D000BF07
:103DF0009DBBA5484430006800F44070B4F8B01092
:103E000001F44071884214D09F484430006820F487
:103E100040789D484430006840F480309A494431ED
:103E200008600846006820F4803008600846C0F842
:103E30000080D4F8B000B0F5807F00E045E015D1F7
:103E4000FEF74AFA074609E0FEF746FAC01B41F2C0
:103E50008831884202D9032507E035E08A4844309A
:103E60000068C0F340000028EED000BF55BB00BF83
:103E7000B4F8B00000F44070B0F5407F0ED1824835
:103E80001C38006820F47C51814AD4F8B0001040FE
:103E900041EA10107C491C39086007E07A481C3858
:103EA000006820F47C5078491C390860764844301A
:103EB0000068B4F8B010C1F30B01084372494431F3
:103EC000086002E02E4300E02E43207800F001005D
:103ED000B8B3A06F182823D005DC48B1082808D053
:103EE000102820D110E020281BD028281BD119E051
:103EF0001BE06548006840F4801063490860201D9D
:103F000002F0E6FA054610E05F48006840F4000061
:103F10005D49086004F1240002F056FB054604E008
:103F200003E002E001E0012500BF00BF55B956489B
:103F30002830006820F03800A16F0843524928312A
:103F4000086000E02E43207800F0020080B3606F2C
:103F500006281FD2DFE800F003040F1B1C1D1BE026
:103F60004948006840F4801047490860201D02F06D
:103F7000AFFA054610E04448006840F400004249AA
:103F8000086004F1240002F01FFB054604E003E092
:103F900002E001E0012500BF00BF55B93A482830D2
:103FA000006820F00700616F084337492831086036
:103FB00000E02E43207800F0040090B3D4F8900085
:103FC00006281FD2DFE800F003040F1B1C1D1BE0B6
:103FD0002D48006840F480102B490860201D02F035
:103FE00077FA054610E02848006840F400002649AA
:103FF000086004F1240002F0E7FA054604E003E05B
:1040000002E001E0012500BF00BF5DB91E482C3071
:10401000006820F00700D4F8901008431A492C31AA
:10402000086000E02E43207800F0200090B3D4F820
:104030008C00B0F1405F2ED007DC68B1B0F1805F3A
:104040000BD0B0F1005F29D112E0B0F1804F23D046
:10405000B0F1A04F22D120E022E00B48006840F4EC
:10406000002009490860201D02F032FA054617E0D9
:104070000548006840F080700349086004F124009E
:1040800002F0A2FA05460BE02C4402580048025800
:10409000FFFCFF0F11E003E002E001E0012500BF9B
:1040A00000BF4DB9FE48006820F0E040D4F88C1005
:1040B0000843FB49086000E02E43207800F04000F0
:1040C00080B3D4F89800B0F5406F2CD007DC68B10D
:1040D000B0F5806F0BD0B0F5006F27D114E0B0F5CC
:1040E000805F21D0B0F5A05F20D11EE020E0EC4839
:1040F0002838006840F40020E94928390860201D6C
:1041000002F0E6F9054613E0E5482838006840F07B
:104110008070E3492839086004F1240002F054FA61
:10412000054605E013E003E002E001E0012500BFE1
:1041300000BF5DB9DA48001D006820F4E050D4F8F3
:1041400098100843D649091D086000E02E432078E6
:1041500000F0800080B3D4F89C00B0F5C04F2CD0A4
:1041600007DC68B1B0F5005F0BD0B0F5804F27D108
:1041700014E0B0F5004F21D0B0F5204F20D11EE063
:1041800020E0C7482838006840F40020C449283996
:104190000860201D02F09CF9054613E0C04828384D
:1041A000006840F08070BE492839086004F124009E
:1041B00002F00AFA054605E013E003E002E001E040
:1041C000012500BF00BF5DB9B548001D006820F49F
:1041D0006040D4F89C100843B149091D086000E014
:1041E0002E43207800F00800D0B1D4F88000B0F55C
:1041F000805F0CD104F1240002F0E6F9A8482838C9
:10420000006840F08070A6492839086008E0A4489A
:10421000006820F44050D4F880100843A04908609A
:10422000207800F01000E0B1D4F89400B0F5807F61
:104230000CD104F1240002F0C7F99948283800682D
:1042400040F080709649283908600AE09448001DC3
:10425000006820F44070D4F8941008439049091D78
:104260000860206800F40020A0B3D4F8A00030B1AA
:10427000B0F5803F10D0B0F5003F1CD11AE088485F
:104280002838006840F40020854928390860201D3E
:1042900002F01EF9054610E081482838006840F019
:1042A00080707F492839086004F1240002F08CF9FD
:1042B000054602E001E0012500BF00BF5DB9784876
:1042C000001D006820F44030D4F8A0100843744961
:1042D000091D086000E02E43206800F4802080B3B0
:1042E000D4F88400B0F5801F06D0B0F5001F0CD0C4
:1042F000B0F5401F18D116E069482838006840F42E
:10430000003067492839086010E06548283800689F
:1043100040F4000062492839086004F1240002F0EA
:1043200053F9054602E001E0012500BF00BF4DB989
:104330005B48006820F44010D4F8841008435849C2
:10434000086000E02E43206800F4803048B3E06C41
:1043500018B1B0F5803F16D108E051482838006800
:1043600040F400304E49283908600EE04C482838A7
:10437000006840F400104A4928390860201D02F006
:10438000A7F8054601E0012500BF00BF55B9444824
:104390000838006820F48030E16C0843404908394F
:1043A000086000E02E43206800F0005060B13C48F7
:1043B0002838006840F0807039492839086004F1D5
:1043C000240002F001F90643206800F4003018B31D
:1043D000E06FA0B1B0F5807F06D0B0F5007F0CD0C3
:1043E000B0F5407F0CD109E02D482838006840F432
:1043F00000302B492839086004E003E002E001E0C6
:10440000012500BF00BF45B92548006820F4407071
:10441000E16F08432249086000E02E43206800F461
:10442000801048B11E48001F006820F00040216F36
:1044300008431B49091F0860206800F0805050B1F4
:1044400017484438006820F48040D4F8B41008437A
:10445000134944390860206800F4001048B110483E
:10446000001F006820F08070A16E08430C49091FEE
:104470000860206800F0804088B100BF08484438D8
:10448000006820F400400649443908600846006886
:10449000D4F8B810084302494439086000BF01E06D
:1044A00054440258206800F0004038B106480068C3
:1044B00020F04050216D08430349086016B90020E0
:1044C000BDE8F0810120FBE74C44025870B504467A
:1044D0000D4600268D48006800F00700A8420ED265
:1044E0008A48006820F00700284388490860084689
:1044F000006800F00700A84201D0012070BD2078BC
:1045000000F00200022807D18148006820F00F0067
:10451000E16808437E490860207800F00100002827
:1045200051D07B48006820F47060A1680843784946
:1045300008606068022807D1754818380068C0F321
:104540004040F8B90120D9E76068032807D17048D6
:1045500018380068C0F34060A0B90120CEE7606859
:10456000012807D16A4818380068C0F3002048B90C
:104570000120C3E7664818380068C0F3800008B916
:104580000120BBE762480838006820F00700616836
:1045900008435F4908390860FDF79EFE06466068DB
:1045A000022811D108E0FDF797FE801B41F2883107
:1045B000884201D90320A1E755480838006800F077
:1045C00038001028EFD13AE06068032811D108E0E4
:1045D000FDF782FE801B41F28831884201D9032019
:1045E0008CE74B480838006800F038001828EFD1F5
:1045F00025E06068012811D108E0FDF76DFE801B01
:1046000041F28831884201D9032077E740480838D1
:10461000006800F038000828EFD110E008E0FDF74E
:104620005BFE801B41F28831884201D9032065E797
:1046300037480838006800F038000028EFD13348C8
:10464000006800F00700A8420ED93048006820F04A
:10465000070028432D4908600846006800F007005D
:10466000A84201D0012049E7207800F00400042886
:1046700007D12748006820F07000216908432449C9
:104680000860207800F00800082809D12048001DA3
:10469000006820F07000616908431D49091D086029
:1046A000207800F01000102809D11948001D00687A
:1046B00020F4E060A16908431549091D08602078CD
:1046C00000F02000202809D111480830006820F0AF
:1046D0007000E16908430E490831086000F066F88F
:1046E0000B49096801F470614FF4807292FAA2F2EA
:1046F000B2FA82F2D140074A515CC84006490860CC
:104700000020FDF709FE0020F8E60000002000521E
:10471000184402588CC100080C00002410B5FEF7A4
:1047200033FE0949096801F00F01012292FAA2F251
:10473000B2FA82F2D140054A515CC840044908608F
:104740000846006810BD0000184402588CC10008DB
:104750001000002410B5FFF7E1FF0749096801F0D8
:104760007001102292FAA2F2B2FA82F2D140034A08
:10477000515CC84010BD00001C4402588CC10008A8
:1047800010B5FFF7CBFF0749096801F4E0614FF46A
:10479000807292FAA2F2B2FA82F2D140024A515CDD
:1047A000C84010BD1C4402588CC1000870B50125DA
:1047B00000EE905A0022012100230024DFED861A2A
:1047C000B0EE610ADFED841AB0EE611A0020834D6D
:1047D0002D6805F0380535B1082D15D0102D15D0F0
:1047E000182D7CD114E07D4D103D2D68C5F340158A
:1047F00045B17A4D103D2D68C5F3C106784D25FAB7
:1048000006F000E07648E5E07648E3E07648E1E04F
:10481000724D18352D6805F00302704D18352D685E
:10482000C5F305116D4D1C352D6805F001036B4D69
:1048300024352D68C5F3CC0515FB03F501EE905A20
:10484000F8EE611AB0EE610A22B1012A4FD0022AB5
:104850007DD16BE0614D103D2D68C5F340152DB342
:104860005E4D103D2D68C5F3C1065D4D25FA06F479
:10487000B4FBF1F501EE905AB8EE612ADFED5B1A58
:10488000C0EE212A554D20352D68C5F3080501EEEF
:10489000905AF8EE611A72EEA11AF7EE002A71EE44
:1048A000A21A62EE211AB0EE611A1FE04C4DB5FB60
:1048B000F1F501EE905AB8EE612ADFED4C1AC0EE28
:1048C000212A464D20352D68C5F3080501EE905A82
:1048D000F8EE611A72EEA11AF7EE002A00E077E016
:1048E00071EEA21A62EE211AB0EE611A5EE03D4D41
:1048F000B5FBF1F501EE905AB8EE612ADFED3B1AF7
:10490000C0EE212A354D20352D68C5F3080501EE8E
:10491000905AF8EE611A72EEA11AF7EE002A71EEC3
:10492000A21A62EE211AB0EE611A3FE02E4DB5FBDD
:10493000F1F501EE905AB8EE612ADFED2C1AC0EEC7
:10494000212A264D20352D68C5F3080500E00EE02C
:1049500001EE905AF8EE611A72EEA11AF7EE002AF3
:1049600071EEA21A62EE211AB0EE611A1EE01D4D20
:10497000B5FBF1F501EE905AF8EE612ADFED1B1A56
:1049800080EE212A154D20352D68C5F3080501EE6E
:10499000905AF8EE611A72EE211AB7EE002A71EE03
:1049A000821A62EEA11AB0EE611A00BF00BF0B4D71
:1049B00020352D68C5F346256D1C00EE905AF8EEA3
:1049C000601A81EE212AFCEEC21A11EE900A01E073
:1049D000044800BF00BF70BD000000001044025832
:1049E0000090D00300093D0040787D0100000046A2
:1049F00070B504460025207800F00100002872D030
:104A0000F948006800F0380010280CD0F64800681B
:104A100000F03800182812D1F3481830006800F070
:104A2000030002280BD1F04810380068C0F3404062
:104A300000286DD0606800286AD1012070BD00BFD9
:104A40006068B0F5803F08D1E7481038006840F44E
:104A50008030E549103908602EE0606868B9E248A6
:104A60001038006820F48030DF49103908600846AB
:104A7000006820F4802008601EE06068B0F5A02F78
:104A80000DD1D9481038006840F48020D64910393B
:104A900008600846006840F4803008600CE0D248A6
:104AA0001038006820F48030CF491039086008467B
:104AB000006820F48020086000BF6068A0B1FDF7A6
:104AC0000BFC054608E0FDF707FC401B41F288316E
:104AD000884201D90320B1E7C34810380068C0F309
:104AE00040400028EFD013E0FDF7F6FB054608E054
:104AF000FDF7F2FB401B41F28831884201D90320C7
:104B00009CE7B94810380068C0F340400028EFD156
:104B1000207800F00200022847D1B348006800F076
:104B2000380058B1B048006800F0380018283ED16D
:104B3000AD481830006800F00300B8BBAA48103830
:104B40000068C0F3800018B1E06808B9012075E77B
:104B5000A5481038006820F01900E1680843A24910
:104B600010390860FDF7B8FB054606E0FDF7B4FB19
:104B7000401B022801D9032060E79B4810380068D9
:104B8000C0F380000028F1D097480C38006820F46A
:104B90007C304FF47C3292FAA2F2B2FA82F22169AE
:104BA0009140084390490C3908604AE0FFE7E0680B
:104BB00068B38D481038006820F01900E168084398
:104BC000894910390860FDF787FB054606E0FDF7C7
:104BD00083FB401B022801D903202FE782481038AD
:104BE0000068C0F380000028F1D07F480C380068CE
:104BF00020F47C304FF47C3292FAA2F2B2FA82F2C4
:104C000021699140084378490C39086019E07648D9
:104C10001038006820F00100734910390860FDF772
:104C20005BFB054606E0FDF757FB401B022801D958
:104C3000032003E76C4810380068C0F380000028A8
:104C4000F1D1207800F01000102877D16648006874
:104C500000F0380008280CD06348006800F03800E5
:104C6000182823D160481830006800F0030001289C
:104C70001CD15D4810380068C0F3002020B1E06905
:104C8000802801D00120D9E657480C38006820F070
:104C9000F8404FF0F84292FAA2F2B2FA82F2216A98
:104CA0009140084350490C39086047E0E06958B327
:104CB0004D481038006840F080004B4910390860BA
:104CC000FDF70AFB054606E0FDF706FB401B022840
:104CD00001D90320B2E6444810380068C0F3002030
:104CE0000028F1D040480C38006820F0F8404FF020
:104CF000F84292FAA2F2B2FA82F2216A9140084393
:104D000039490C39086019E037481038006820F03C
:104D10008000354910390860FDF7DEFA054606E0E7
:104D2000FDF7DAFA401B022801D9032086E62E4857
:104D300010380068C0F300200028F1D1207800F07E
:104D40000800082836D16069D0B12748643000686F
:104D500040F00100244964310860FDF7BDFA0546C2
:104D600006E0FDF7B9FA401B022801D9032065E6E9
:104D70001D4864300068C0F340000028F1D019E0FD
:104D800019486430006820F0010017496431086058
:104D9000FDF7A2FA054606E0FDF79EFA401B022841
:104DA00001D903204AE6104864300068C0F340008F
:104DB0000028F1D1207800F02000202834D1A0690B
:104DC000D8B109481038006840F4805006491039BD
:104DD0000860FDF781FA054608E0FDF77DFA401B03
:104DE000022803D9032029E610440258AF4800687E
:104DF000C0F340300028F0D016E0AC48006820F442
:104E00008050AA490860FDF767FA054606E0FDF7FD
:104E100063FA401B022801D903200FE6A34800686B
:104E2000C0F340300028F2D1207800F004000428BC
:104E30007DD19F48006840F480709D490860FDF76F
:104E40004BFA054606E0FDF747FA401B642801D9F6
:104E50000320F3E59648006800F480700028F2D043
:104E600000BFA068012808D190487030006840F069
:104E700001008E49703108602DE0A06868B98B4848
:104E80007030006820F001008849703108600846E1
:104E9000006820F0040008601DE0A06805280DD11E
:104EA00082487030006840F004008049703108602A
:104EB0000846006840F0010008600CE07B48703054
:104EC000006820F0010079497031086008460068E8
:104ED00020F00400086000BFA068A0B1FDF7FCF955
:104EE000054608E0FDF7F8F9401B41F28831884299
:104EF00001D90320A2E56D4870300068C0F340007E
:104F00000028EFD013E0FDF7E7F9054608E0FDF7CC
:104F1000E3F9401B41F28831884201D903208DE535
:104F2000624870300068C0F340000028EFD1606A2A
:104F300000287CD05D481030006800F03800182848
:104F400076D0606A022874D15848006820F08070DA
:104F500056490860FDF7C0F9054606E0FDF7BCF9C3
:104F6000401B022801D9032068E550480068C0F3BF
:104F700040600028F2D100BFD4E90A1041EA0010D5
:104F80004A492831096840F2F332914308434749BE
:104F900028310860208E401EC0F30800616B491E56
:104FA0004FF47E4202EA41210843218F491ED2017B
:104FB00002EA014108433C21095D491E120202EA4E
:104FC0000161084339493031086000BF081D00689D
:104FD0004FF6F87188434FF6F87292FAA2F2B2FADD
:104FE00082F2A16C914008433049343108602F4867
:104FF0002C30006820F00C00216C08432B492C3128
:1050000008600846006820F00200616C08432749E8
:105010002C3108600846006840F48030086008467B
:10502000006840F4003008600846006802E03BE099
:1050300038E01FE040F4802008600846006840F037
:10504000010008601948006840F080701749086046
:10505000FDF742F9054606E0FDF73EF9401B022840
:1050600001D90320EAE411480068C0F34060002839
:10507000F2D019E00D48006820F080700B490860FC
:10508000FDF72AF9054606E0FDF726F9401B022840
:1050900001D90320D2E405480068C0F3406000282D
:1050A000F2D101E00120C9E40020C7E40044025825
:1050B00000480258042808D14FF0E021096941F066
:1050C00004014FF0E022116107E04FF0E02109698F
:1050D00021F004014FF0E0221161704770B50446E1
:1050E0002546681EB0F1807F01D301200FE0681EC5
:1050F0004FF0E02148610F214FF0FF3004F07AFAC1
:1051000000204FF0E021886107200861002070BD79
:105110007047704710B504460CB9012010BD94F8D3
:105120003D0028B9002084F83C00204600F00CF82F
:10513000022084F83D00211D206801F0ABFC012015
:1051400084F83D000020E9E738B504460E492068A0
:10515000884217D100BF00BF0C48006840F0100023
:105160000A4908600846006800F01000009000BF7F
:1051700000BF00BF032201213620FDF754F936207D
:10518000FDF741F938BD000000100040E844025826
:1051900001460868C06840F001000A68D0600868ED
:1051A000008840F001000A681080002070477047B6
:1051B00010B5044620680069C0F34000D8B12068EB
:1051C000C068C0F34000B0B16FF002002168086110
:1051D000012020772068806900F0030018B1204684
:1051E000FFF7E5FF05E0204600F0BEF8204600F09E
:1051F000BCF80020207720680069C0F38000D8B197
:105200002068C068C0F38000B0B16FF0040021686E
:105210000861022020772068806900F4407018B18E
:105220002046FFF7C4FF05E0204600F09DF8204629
:1052300000F09BF80020207720680069C0F3C000D0
:10524000D8B12068C068C0F3C000B0B16FF00800EA
:1052500021680861042020772068C06900F00300FD
:1052600018B12046FFF7A3FF05E0204600F07CF8C8
:10527000204600F07AF80020207720680069C0F30B
:105280000010D8B12068C068C0F30010B0B16FF052
:10529000100021680861082020772068C06900F4A8
:1052A000407018B12046FFF782FF05E0204600F06D
:1052B0005BF8204600F059F800202077206800694C
:1052C00000F0010058B12068C06800F0010030B162
:1052D0006FF0010021680861204600F047F820685F
:1052E0000069C0F3C01058B12068C068C0F3C01096
:1052F00030B16FF08000216808612046FFF708FF99
:1053000020680069C0F3002058B12068C068C0F36D
:10531000C01030B16FF08000216808612046FFF7AF
:10532000F7FE20680069C0F3801058B12068C0689B
:10533000C0F3801030B16FF0400021680861204652
:1053400000F072FB20680069C0F3401058B120687B
:10535000C068C0F3401030B16FF0200021680861D0
:105360002046FFF7D6FE10BD7047704710B50446C3
:10537000FA49206888427DD10115F948FCF7A2FF5F
:105380004021F748FCF79EFF4FF48071F548FCF789
:1053900099FFF548007801286ED101F043FA00200A
:1053A000F2490860F24908600EE0F248F0490968E5
:1053B00030F81100ED4909680844EC490860EC48F0
:1053C0000068401CEA490860E94800681428ECDBE2
:1053D000E64800681421B0FBF1F0E7490880084670
:1053E000008800EE100AB8EE400AB7EEC00A9FED42
:1053F000E31B20EE010BB7EEC00BE24880ED000A84
:10540000E1480068012805D1DE4890ED000ADF4838
:1054100080ED000ADC48006868BBDA4890ED000ABD
:10542000DB4880ED000AD94890ED000AD848D0ED5D
:10543000000A80EE201AD74880ED001A90ED000A8D
:10544000F7EE000A80EE801AB7EEC10A9FEDD21B7C
:1054500020EE010BB7EEC00BD14880ED000A90EDB5
:10546000000AD048D049098800EB810080ED000A8D
:10547000CB4802E0CAE20FE014E090ED001ADFED45
:10548000CB1A21EE211AB7EEC11AB0EE410B53EC44
:10549000102BC7A005F0A8FD0020B3490870142008
:1054A00004F016FDC048008820281FD2DFE800F075
:1054B000F8101F2F3E4E5D6D7C8C9BAAB9C9D8F9A0
:1054C000F6F5F4F3F2F1F0EFEEEDECEBEAE9E8E7F4
:1054D00000BF00228021A348FCF7F8FE00BF00BFF8
:1054E00001225102B348FCF7F1FE00BF72E200BF97
:1054F000012280219B48FCF7E9FE00BF00BF00228B
:105500004FF40071AB48FCF7E1FE00BF62E200BF60
:10551000002280219348FCF7D9FE00BF00BF012282
:105520001103A548FCF7D2FE00BF53E200BF0122E1
:1055300080218C48FCF7CAFE00BF00BF00224FF458
:1055400080519D48FCF7C2FE00BF43E200BF00222D
:1055500080218448FCF7BAFE00BF00BF012211027F
:105560009448FCF7B3FE00BF34E200BF0122802163
:105570007C48FCF7ABFE00BF00BF00224FF48071F7
:105580008C48FCF7A3FE00BF24E200BF002280216C
:105590007448FCF79BFE00BF00BF01225103864800
:1055A000FCF794FE00BF15E200BF012280216D4888
:1055B000FCF78CFE00BF00BF00224FF400517E4874
:1055C000FCF784FE00BF05E200BF00228021654891
:1055D000FCF77CFE00BF00BF012280217748FCF76A
:1055E00075FE00BFF6E100BF012280215D48FCF797
:1055F0006DFE00BF00BF002280217048FCF766FEF0
:1056000000BFE7E100BF002280215648FCF75EFEA4
:1056100000BF00BF012291036748FCF757FE00BF9F
:10562000D8E100BF012280214E48FCF74FFE00BFA9
:1056300000BF00224FF480415F48FCF747FE00BFE7
:10564000C8E100BF002280214648FCF73FFE00BFB2
:1056500000BF012240215948FCF738FE00BFB9E1E4
:1056600000BF012280213F48FCF730FE00BF00BF91
:10567000002240215148FCF729FE00BFAAE13AE18F
:1056800029E119E108E1F8E0E7E0D7E0C6E0B6E09B
:10569000A5E095E052E042E031E021E010E000E0DA
:1056A00038E100BF002280212E48FCF70FFE00BF2A
:1056B00000BF0122D1034048FCF708FE00BF89E18A
:1056C00000BF012280212748FCF700FE00BF00BF79
:1056D00000224FF400413848FCF7F8FD00BF79E1A3
:1056E00000BF002280211F48FCF7F0FD00BF00BF73
:1056F0000122D1033148FCF7E9FD00BF6AE100BF98
:10570000012280211748FCF7E1FD00BF00BF002205
:105710004FF400412948FCF7D9FD00BF5AE100BF12
:10572000002280210F48FCF7D1FD00BF00BF0122FD
:1057300011022248FCF7CAFD00BF4BE100BF012265
:1057400080210848FCF7C2FD00BF00BF00224FF4D3
:1057500080711A48FCF7BAFD00BF3BE10010004021
:1057600000100258000002582D00002450000024B0
:1057700040000024540500244C0000246666666640
:1057800066660A3F58000024480000246400002494
:10579000680000245C000024F0A7C64B3749304065
:1057A00060000024700F00245400002400004842D0
:1057B000256620000008025800040258000C025818
:1057C00000BF002280219248FCF780FD00BF00BF8F
:1057D000012291038F48FCF779FD00BFFAE000BF7A
:1057E000012280218A48FCF771FD00BF00BF002222
:1057F0004FF480418748FCF769FD00BFEAE000BF35
:10580000002280218248FCF761FD00BF00BF012219
:1058100051028048FCF75AFD00BFDBE000BF0122C7
:1058200080217B48FCF752FD00BF00BF00224FF4EF
:1058300000717848FCF74AFD00BFCBE000BF0022B2
:1058400080217348FCF742FD00BF00BF01225103D5
:105850007048FCF73BFD00BFBCE000BF0122802187
:105860006B48FCF733FD00BF00BF00224FF400512E
:105870006848FCF72BFD00BFACE000BF0022802190
:105880006348FCF723FD00BF00BF0122910261487D
:10589000FCF71CFD00BF9DE000BF012280215C4899
:1058A000FCF714FD00BF00BF00224FF4806159488F
:1058B000FCF70CFD00BF8DE000BF002280215448A2
:1058C000FCF704FD00BF00BF012211035148FCF7A3
:1058D000FDFC00BF7EE000BF012280214C48FCF7A8
:1058E000F5FC00BF00BF00224FF480514948FCF78F
:1058F000EDFC00BF6EE000BF002280214448FCF7B1
:10590000E5FC00BF00BF0122D1024248FCF7DEFCEB
:1059100000BF5FE04048008810283CD2DFE800F07C
:1059200035080B0E1114171A1D202326292C2F328F
:1059300004F0E6FE2FE004F007FF2CE004F028FF5F
:1059400029E004F049FF26E004F06AFF23E004F0B8
:105950008BFF20E004F0ACFF1DE004F0CDFF1AE067
:1059600004F0DAFD17E004F0FBFD14E004F01CFE87
:1059700011E004F03DFE0EE004F05CFE0BE004F0EC
:105980007BFE08E004F09AFE05E024A005F02CFB65
:1059900004F09EFD00BF00BF00BF012280211C4813
:1059A000FCF794FC00BF00BF00224FF400611948CF
:1059B000FCF78CFC00BF18480088401C1649088082
:1059C0000888C11700EB11710911A0EB0111124AEF
:1059D000118000BF00BF12480088401C1049088099
:1059E0000888C11700EBD1614911A0EB41110C4AA5
:1059F00011800C480068401C0A490860086800EBE8
:105A0000D0714910A0EB4101064A116010BD0000A1
:105A100000000258000C02585600002461000000EB
:105A20005400002448000024704770477047014626
:105A30000022002391F8792091F87A3042EA03009D
:105A4000704700002DE9F04104462068C5692068D0
:105A500007682068866805F00F08B8F1000F0DD1BF
:105A600005F0200050B107F0200010B906F080507A
:105A700020B1204601F07DF9BDE8F081B8F1000FBA
:105A800072D05D48304018B907F4907000287AD081
:105A900005F0010048B107F4807030B101202168A1
:105AA0000862E06F40F00100E06705F0020048B1D5
:105AB00006F0010030B1022021680862E06F40F07A
:105AC0000400E06705F0040048B106F0010030B1C1
:105AD000042021680862E06F40F00200E06705F0F2
